{
  "_format": "hh-sol-artifact-1",
  "contractName": "HCHFToken",
  "sourceName": "contracts/HCHFToken.sol",
  "abi": [
    {
      "inputs": [
        {
          "internalType": "address",
          "name": "_troveManagerAddress",
          "type": "address"
        },
        {
          "internalType": "address",
          "name": "_stabilityPoolAddress",
          "type": "address"
        },
        {
          "internalType": "address",
          "name": "_borrowerOperationsAddress",
          "type": "address"
        }
      ],
      "stateMutability": "payable",
      "type": "constructor"
    },
    {
      "anonymous": false,
      "inputs": [
        {
          "indexed": false,
          "internalType": "address",
          "name": "_newBorrowerOperationsAddress",
          "type": "address"
        }
      ],
      "name": "BorrowerOperationsAddressChanged",
      "type": "event"
    },
    {
      "anonymous": false,
      "inputs": [
        {
          "indexed": true,
          "internalType": "address",
          "name": "admin",
          "type": "address"
        },
        {
          "indexed": false,
          "internalType": "string",
          "name": "metadata",
          "type": "string"
        }
      ],
      "name": "MetadataSet",
      "type": "event"
    },
    {
      "anonymous": false,
      "inputs": [
        {
          "indexed": false,
          "internalType": "int64",
          "name": "newTotalSupply",
          "type": "int64"
        },
        {
          "indexed": false,
          "internalType": "int64[]",
          "name": "serialNumbers",
          "type": "int64[]"
        }
      ],
      "name": "MintedToken",
      "type": "event"
    },
    {
      "anonymous": false,
      "inputs": [
        {
          "indexed": false,
          "internalType": "int256",
          "name": "responseCode",
          "type": "int256"
        }
      ],
      "name": "ResponseCode",
      "type": "event"
    },
    {
      "anonymous": false,
      "inputs": [
        {
          "indexed": false,
          "internalType": "address",
          "name": "_newStabilityPoolAddress",
          "type": "address"
        }
      ],
      "name": "StabilityPoolAddressChanged",
      "type": "event"
    },
    {
      "anonymous": false,
      "inputs": [
        {
          "indexed": true,
          "internalType": "address",
          "name": "token",
          "type": "address"
        },
        {
          "components": [
            {
              "internalType": "string",
              "name": "tokenName",
              "type": "string"
            },
            {
              "internalType": "string",
              "name": "tokenSymbol",
              "type": "string"
            },
            {
              "components": [
                {
                  "internalType": "uint256",
                  "name": "keyType",
                  "type": "uint256"
                },
                {
                  "internalType": "bytes",
                  "name": "publicKey",
                  "type": "bytes"
                },
                {
                  "internalType": "bool",
                  "name": "isED25519",
                  "type": "bool"
                }
              ],
              "internalType": "struct KeysLib.KeysStruct[]",
              "name": "keys",
              "type": "tuple[]"
            },
            {
              "internalType": "int64",
              "name": "second",
              "type": "int64"
            },
            {
              "internalType": "int64",
              "name": "autoRenewPeriod",
              "type": "int64"
            },
            {
              "internalType": "string",
              "name": "tokenMetadataURI",
              "type": "string"
            }
          ],
          "indexed": false,
          "internalType": "struct IHCHFToken.UpdateTokenStruct",
          "name": "updateTokenStruct",
          "type": "tuple"
        }
      ],
      "name": "TokenUpdated",
      "type": "event"
    },
    {
      "anonymous": false,
      "inputs": [
        {
          "indexed": true,
          "internalType": "address",
          "name": "burner",
          "type": "address"
        },
        {
          "indexed": true,
          "internalType": "address",
          "name": "token",
          "type": "address"
        },
        {
          "indexed": false,
          "internalType": "int64",
          "name": "amount",
          "type": "int64"
        }
      ],
      "name": "TokensBurned",
      "type": "event"
    },
    {
      "anonymous": false,
      "inputs": [
        {
          "indexed": true,
          "internalType": "address",
          "name": "minter",
          "type": "address"
        },
        {
          "indexed": true,
          "internalType": "address",
          "name": "token",
          "type": "address"
        },
        {
          "indexed": false,
          "internalType": "int64",
          "name": "amount",
          "type": "int64"
        },
        {
          "indexed": true,
          "internalType": "address",
          "name": "account",
          "type": "address"
        }
      ],
      "name": "TokensMinted",
      "type": "event"
    },
    {
      "anonymous": false,
      "inputs": [
        {
          "indexed": true,
          "internalType": "address",
          "name": "token",
          "type": "address"
        },
        {
          "indexed": true,
          "internalType": "address",
          "name": "from",
          "type": "address"
        },
        {
          "indexed": true,
          "internalType": "address",
          "name": "to",
          "type": "address"
        },
        {
          "indexed": false,
          "internalType": "int64",
          "name": "value",
          "type": "int64"
        }
      ],
      "name": "Transfer",
      "type": "event"
    },
    {
      "anonymous": false,
      "inputs": [
        {
          "indexed": false,
          "internalType": "address",
          "name": "_troveManagerAddress",
          "type": "address"
        }
      ],
      "name": "TroveManagerAddressChanged",
      "type": "event"
    },
    {
      "inputs": [
        {
          "internalType": "address",
          "name": "account",
          "type": "address"
        }
      ],
      "name": "balanceOf",
      "outputs": [
        {
          "internalType": "uint256",
          "name": "",
          "type": "uint256"
        }
      ],
      "stateMutability": "view",
      "type": "function"
    },
    {
      "inputs": [],
      "name": "borrowerOperationsAddress",
      "outputs": [
        {
          "internalType": "address",
          "name": "",
          "type": "address"
        }
      ],
      "stateMutability": "view",
      "type": "function"
    },
    {
      "inputs": [
        {
          "internalType": "address",
          "name": "_account",
          "type": "address"
        },
        {
          "internalType": "uint256",
          "name": "_amount",
          "type": "uint256"
        }
      ],
      "name": "burn",
      "outputs": [],
      "stateMutability": "nonpayable",
      "type": "function"
    },
    {
      "inputs": [],
      "name": "decimals",
      "outputs": [
        {
          "internalType": "uint8",
          "name": "",
          "type": "uint8"
        }
      ],
      "stateMutability": "view",
      "type": "function"
    },
    {
      "inputs": [],
      "name": "getTokenAddress",
      "outputs": [
        {
          "internalType": "address",
          "name": "",
          "type": "address"
        }
      ],
      "stateMutability": "view",
      "type": "function"
    },
    {
      "inputs": [
        {
          "internalType": "address",
          "name": "_account",
          "type": "address"
        },
        {
          "internalType": "uint256",
          "name": "_amount",
          "type": "uint256"
        }
      ],
      "name": "mint",
      "outputs": [],
      "stateMutability": "nonpayable",
      "type": "function"
    },
    {
      "inputs": [],
      "name": "name",
      "outputs": [
        {
          "internalType": "string",
          "name": "",
          "type": "string"
        }
      ],
      "stateMutability": "view",
      "type": "function"
    },
    {
      "inputs": [
        {
          "internalType": "address",
          "name": "_poolAddress",
          "type": "address"
        },
        {
          "internalType": "address",
          "name": "_receiver",
          "type": "address"
        },
        {
          "internalType": "uint256",
          "name": "_amount",
          "type": "uint256"
        }
      ],
      "name": "returnFromPool",
      "outputs": [],
      "stateMutability": "nonpayable",
      "type": "function"
    },
    {
      "inputs": [
        {
          "internalType": "address",
          "name": "_sender",
          "type": "address"
        },
        {
          "internalType": "address",
          "name": "_poolAddress",
          "type": "address"
        },
        {
          "internalType": "uint256",
          "name": "_amount",
          "type": "uint256"
        }
      ],
      "name": "sendToPool",
      "outputs": [],
      "stateMutability": "nonpayable",
      "type": "function"
    },
    {
      "inputs": [],
      "name": "stabilityPoolAddress",
      "outputs": [
        {
          "internalType": "address",
          "name": "",
          "type": "address"
        }
      ],
      "stateMutability": "view",
      "type": "function"
    },
    {
      "inputs": [],
      "name": "symbol",
      "outputs": [
        {
          "internalType": "string",
          "name": "",
          "type": "string"
        }
      ],
      "stateMutability": "view",
      "type": "function"
    },
    {
      "inputs": [],
      "name": "tokenAddress",
      "outputs": [
        {
          "internalType": "address",
          "name": "",
          "type": "address"
        }
      ],
      "stateMutability": "view",
      "type": "function"
    },
    {
      "inputs": [],
      "name": "totalSupply",
      "outputs": [
        {
          "internalType": "uint256",
          "name": "",
          "type": "uint256"
        }
      ],
      "stateMutability": "view",
      "type": "function"
    },
    {
      "inputs": [
        {
          "internalType": "address",
          "name": "token",
          "type": "address"
        },
        {
          "internalType": "address",
          "name": "from",
          "type": "address"
        },
        {
          "internalType": "address",
          "name": "to",
          "type": "address"
        },
        {
          "internalType": "uint256",
          "name": "amount",
          "type": "uint256"
        }
      ],
      "name": "transferFrom",
      "outputs": [
        {
          "internalType": "int64",
          "name": "responseCode",
          "type": "int64"
        }
      ],
      "stateMutability": "nonpayable",
      "type": "function"
    },
    {
      "inputs": [
        {
          "internalType": "address",
          "name": "token",
          "type": "address"
        },
        {
          "internalType": "address",
          "name": "from",
          "type": "address"
        },
        {
          "internalType": "address",
          "name": "to",
          "type": "address"
        },
        {
          "internalType": "uint256",
          "name": "serialNumber",
          "type": "uint256"
        }
      ],
      "name": "transferFromNFT",
      "outputs": [
        {
          "internalType": "int64",
          "name": "responseCode",
          "type": "int64"
        }
      ],
      "stateMutability": "nonpayable",
      "type": "function"
    },
    {
      "inputs": [],
      "name": "troveManagerAddress",
      "outputs": [
        {
          "internalType": "address",
          "name": "",
          "type": "address"
        }
      ],
      "stateMutability": "view",
      "type": "function"
    }
  ],
  "bytecode": "0x60e0604052604051620024ee380380620024ee8339810160408190526200002691620007aa565b600160208181527fa6eef7e35abe7026729641147f7915573c7e97b47efa546f5f6e3230263bcb499190915560027fcc69885fda6bcc1a4ace058b4a62bf5e179ea78fd58a1ccd71c22cc9b688792f5560047fd9d16d34ffb15ba3a3d852f0d403e2ce1d691fb54de27ac87cd2f993f3ec330f5560087f7dfe757ecd65cbd7922a9c0161e935dd7fdbcc0e999689c7d31633896b1fc60b5560107fedc95719e9a3b28dd8e80877cb5880a9be7de1a13fc8b05e7999683b6b567643557fe2689cd4a84e23ad2f564004f1c9013e9589d260bde6380aba3ca7e09e4df40c55600660005260407f8f331abe73332f95a25873e8b430885974c0409691f89d643119a11623a7924a5562000138836200039b565b6200014c826001600160e01b036200039b16565b62000160816001600160e01b036200039b16565b6001600160601b0319606084901b166080526040517f143219c9e69b09e07e095fcc889b43d8f46ca892bba65f08dc3a0050869a567890620001a4908590620009a3565b60405180910390a16001600160601b0319606083901b1660a0526040517f82966d27eea39b038ee0fa30cd16532bb24f6e65d31cb58fb227aa5766cdcc7f90620001f0908490620009a3565b60405180910390a16001600160601b0319606082901b1660c0526040517f3ca631ffcd2a9b5d9ae18543fc82f58eb4ca33af9e6ab01b7a8e95331e6ed985906200023c908390620009a3565b60405180910390a16200024e620006c8565b604080518082018252600f81526e2221a4231029ba30b13632b1b7b4b760891b6020808301919091529083528151808301835260048152632221a42360e11b818301529083015230908201819052620002b490627a12006001600160e01b03620003f316565b610100820152604080516001808252818301909252606091816020015b620002db6200072b565b815260200190600190039081620002d15790505090506200031560046000604051806020016040528060008152506200041c60201b60201c565b816000815181106200032357fe5b6020026020010181905250808260e001819052506000806200035484600060086200046660201b620004c91760201c565b90925090506200036d826001600160e01b036200059b16565b50600280546001600160a01b0319166001600160a01b03929092169190911790555062000bdc945050505050565b6001600160a01b038116620003cd5760405162461bcd60e51b8152600401620003c490620009b7565b60405180910390fd5b803b80620003ef5760405162461bcd60e51b8152600401620003c49062000a3f565b5050565b620003fd62000747565b6001600160a01b039092166020830152600790810b900b604082015290565b620004266200072b565b60405180604001604052806200044286620005c860201b60201c565b81526020016200045c85856001600160e01b03620005fd16565b9052949350505050565b600080848061010001516000015160070b60001480156200049157506101008101516040015160070b155b15620004a8576101008101516276a7006040909101525b600060606101676001600160a01b031634630fb65bf360e01b8a8a8a604051602401620004d89392919062000a74565b60408051601f198184030181529181526020820180516001600160e01b03166001600160e01b031990941693909317909252905162000518919062000985565b60006040518083038185875af1925050503d806000811462000557576040519150601f19603f3d011682016040523d82523d6000602084013e6200055c565b606091505b50915091508162000571576015600062000587565b80806020019051810190620005879190620007fd565b60039190910b999098509650505050505050565b600060168214620005c05760405162461bcd60e51b8152600401620003c490620009ee565b506001919050565b600060016000836006811115620005db57fe5b6006811115620005e757fe5b8152602001908152602001600020549050919050565b6200060762000767565b60008360048111156200061657fe5b1415620006275760018152620006c2565b60018360048111156200063657fe5b141562000654576000546001600160a01b03166020820152620006c2565b60028360048111156200066357fe5b1415620006775760408101829052620006c2565b60038360048111156200068657fe5b14156200069a5760608101829052620006c2565b6004836004811115620006a957fe5b1415620006c2576000546001600160a01b031660808201525b92915050565b604051806101200160405280606081526020016060815260200160006001600160a01b0316815260200160608152602001600015158152602001600060070b8152602001600015158152602001606081526020016200072662000747565b905290565b6040518060400160405280600081526020016200072662000767565b604080516060810182526000808252602082018190529181019190915290565b6040518060a0016040528060001515815260200160006001600160a01b03168152602001606081526020016060815260200160006001600160a01b031681525090565b600080600060608486031215620007bf578283fd5b8351620007cc8162000bc3565b6020850151909350620007df8162000bc3565b6040850151909250620007f28162000bc3565b809150509250925092565b6000806040838503121562000810578182fd5b82518060030b811462000821578283fd5b6020840151909250620008348162000bc3565b809150509250929050565b6001600160a01b03169052565b60008282518085526020808601955080818302840101818601855b848110156200090d57601f1986840301895281516040815185528582015181878701528051151582870152868101519250606060018060a01b038085168289015283830151945060a09350608084818a0152620008c860e08a018762000920565b848401518a8203603f1901878c01529650620008e5818862000920565b949091015190911660c09890980197909752509a86019a945050509083019060010162000867565b5090979650505050505050565b15159052565b600081518084526200093a81602086016020860162000b90565b601f01601f19169290920160200192915050565b60030b9052565b60070b9052565b8051600790810b83526020808301516001600160a01b031690840152604091820151900b910152565b600082516200099981846020870162000b90565b9190910192915050565b6001600160a01b0391909116815260200190565b6020808252601e908201527f4163636f756e742063616e6e6f74206265207a65726f20616464726573730000604082015260600190565b60208082526031908201527f526573706f6e7365436f6465496e76616c69643a2070726f766964656420636f6040820152706465206973206e6f74207375636365737360781b606082015260800190565b6020808252818101527f4163636f756e7420636f64652073697a652063616e6e6f74206265207a65726f604082015260600190565b600060608252845161016080606085015262000a956101c085018362000920565b60208801519250605f198086830301608087015262000ab5828562000920565b60408a0151945062000acb60a08801866200083f565b60608a01519450818782030160c088015262000ae8818662000920565b9250506080890151935062000b0160e08701856200091a565b60a0890151935061010062000b198188018662000955565b60c08a0151945062000b306101208801866200091a565b60e08a01519450818784030161014088015262000b4e83866200084c565b908a01519450905062000b64868401856200095c565b935062000b7992505050602083018562000955565b62000b8860408301846200094e565b949350505050565b60005b8381101562000bad57818101518382015260200162000b93565b8381111562000bbd576000848401525b50505050565b6001600160a01b038116811462000bd957600080fd5b50565b60805160601c60a05160601c60c05160601c6118b962000c356000398061049f52806108375280610a7252508061028352806106ac5280610ad75280610c285250806103d7528061067a5280610aa452506118b96000f3fe608060405234801561001057600080fd5b50600436106100e05760003560e01c80635a4d28bb116100875780635a4d28bb1461019257806370a082311461019a57806395d89b41146101ad5780639b23d3d9146101b55780639d76ea58146101c85780639dc29fac146101d0578063b7f8cf9b146101e3578063bb997bac146101eb576100e0565b806306fdde03146100e55780630b622ab21461010357806310fe9ae81461011857806315dacbea1461012057806318160ddd1461014057806320c582be14610155578063313ce5671461016a57806340c10f191461017f575b600080fd5b6100ed6101fe565b6040516100fa9190611477565b60405180910390f35b61010b610281565b6040516100fa9190611321565b61010b6102a5565b61013361012e366004610eef565b6102b4565b6040516100fa9190611469565b610148610397565b6040516100fa91906117bf565b610168610163366004610f3f565b6103a1565b005b6101726103b9565b6040516100fa91906117c8565b61016861018d366004610f7f565b6103c3565b61010b6103d5565b6101486101a8366004610ecc565b6103f9565b6100ed61040a565b6101336101c3366004610eef565b61044c565b61010b61047c565b6101686101de366004610f7f565b61048b565b61010b61049d565b6101686101f9366004610f3f565b6104c1565b60606102086102a5565b6001600160a01b03166306fdde036040518163ffffffff1660e01b815260040160006040518083038186803b15801561024057600080fd5b505afa158015610254573d6000803e3d6000fd5b505050506040513d6000823e601f3d908101601f1916820160405261027c9190810190611105565b905090565b7f000000000000000000000000000000000000000000000000000000000000000081565b6002546001600160a01b031690565b60008060606101676001600160a01b03166315dacbea60e01b888888886040516024016102e49493929190611362565b60408051601f198184030181529181526020820180516001600160e01b03166001600160e01b03199094169390931790925290516103229190611305565b6000604051808303816000865af19150503d806000811461035f576040519150601f19603f3d011682016040523d82523d6000602084013e610364565b606091505b509150915081610375576015610389565b808060200190518101906103899190610faa565b60030b979650505050505050565b600061027c6105f2565b6103a961066f565b6103b48383836106f5565b505050565b600061027c6107af565b6103cb61082c565b6103b48282610874565b7f000000000000000000000000000000000000000000000000000000000000000081565b6000610404826109e2565b92915050565b60606104146102a5565b6001600160a01b03166395d89b416040518163ffffffff1660e01b815260040160006040518083038186803b15801561024057600080fd5b60008060606101676001600160a01b0316639b23d3d960e01b888888886040516024016102e49493929190611362565b6002546001600160a01b031681565b610493610a67565b6103b48282610b15565b7f000000000000000000000000000000000000000000000000000000000000000081565b6103a9610c1d565b600080848061010001516000015160070b60001480156104f357506101008101516040015160070b155b15610509576101008101516276a7006040909101525b600060606101676001600160a01b031634630fb65bf360e01b8a8a8a604051602401610537939291906116b9565b60408051601f198184030181529181526020820180516001600160e01b03166001600160e01b03199094169390931790925290516105759190611305565b60006040518083038185875af1925050503d80600081146105b2576040519150601f19603f3d011682016040523d82523d6000602084013e6105b7565b606091505b5091509150816105ca57601560006105de565b808060200190518101906105de9190610fc6565b60039190910b999098509650505050505050565b600254604080516318160ddd60e01b815290516000926001600160a01b0316916318160ddd916004808301926020929190829003018186803b15801561063757600080fd5b505afa15801561064b573d6000803e3d6000fd5b505050506040513d601f19601f8201168201806040525081019061027c9190611191565b336001600160a01b037f00000000000000000000000000000000000000000000000000000000000000001614806106ce5750336001600160a01b037f000000000000000000000000000000000000000000000000000000000000000016145b6106f35760405162461bcd60e51b81526004016106ea90611590565b60405180910390fd5b565b6001600160a01b03831661070557fe5b6001600160a01b03821661071557fe5b677fffffffffffffff81111561073d5760405162461bcd60e51b81526004016106ea90611637565b8060006107486102a5565b9050600061075882878786610c65565b905061076381610c95565b50846001600160a01b0316866001600160a01b0316836001600160a01b03166000805160206118648339815191528660405161079f9190611469565b60405180910390a4505050505050565b6002546040805163313ce56760e01b815290516000926001600160a01b03169163313ce567916004808301926020929190829003018186803b1580156107f457600080fd5b505afa158015610808573d6000803e3d6000fd5b505050506040513d601f19601f8201168201806040525081019061027c91906111a9565b336001600160a01b037f000000000000000000000000000000000000000000000000000000000000000016146106f35760405162461bcd60e51b81526004016106ea9061166e565b6000677fffffffffffffff82111561089e5760405162461bcd60e51b81526004016106ea90611637565b8160006108a96102a5565b905060006108b6306109e2565b905060006108f98385836040519080825280602002602001820160405280156108f357816020015b60608152602001906001900390816108de5790505b50610cbf565b50509050600061090882610c95565b90508683610915306109e2565b03146109335760405162461bcd60e51b81526004016106ea9061148a565b61093e3089896106f5565b876001600160a01b0316846001600160a01b0316336001600160a01b03167f934db7531d828cd34b45bac43e2b8a766685392b2d772fa9dcf22a0b939a9b9b8860405161098b9190611469565b60405180910390a4876001600160a01b031660006001600160a01b0316856001600160a01b0316600080516020611864833981519152886040516109cf9190611469565b60405180910390a4979650505050505050565b60006109ec6102a5565b6001600160a01b03166370a08231836040518263ffffffff1660e01b8152600401610a179190611321565b60206040518083038186803b158015610a2f57600080fd5b505afa158015610a43573d6000803e3d6000fd5b505050506040513d601f19601f820116820180604052508101906104049190611191565b336001600160a01b037f0000000000000000000000000000000000000000000000000000000000000000161480610ac65750336001600160a01b037f000000000000000000000000000000000000000000000000000000000000000016145b80610af95750336001600160a01b037f000000000000000000000000000000000000000000000000000000000000000016145b6106f35760405162461bcd60e51b81526004016106ea9061151d565b6000677fffffffffffffff821115610b3f5760405162461bcd60e51b81526004016106ea90611637565b816000610b4a6102a5565b9050610b578530866106f5565b60408051600080825260208201909252610b749083908590610dbe565b5090506000610b8282610c95565b9050826001600160a01b0316336001600160a01b03167f4f573c1c6a0b39a573b0d1eb72a77da722c80f61ae1dc2d70295dd8132410e1986604051610bc79190611469565b60405180910390a360006001600160a01b0316876001600160a01b0316846001600160a01b031660008051602061186483398151915287604051610c0b9190611469565b60405180910390a49695505050505050565b336001600160a01b037f000000000000000000000000000000000000000000000000000000000000000016146106f35760405162461bcd60e51b81526004016106ea906114d8565b60008060606101676001600160a01b031663eca3691760e01b888888886040516024016102e49493929190611335565b600060168214610cb75760405162461bcd60e51b81526004016106ea906115e6565b506001919050565b6000806060600060606101676001600160a01b031663e0f4059a60e01b898989604051602401610cf19392919061138c565b60408051601f198184030181529181526020820180516001600160e01b03166001600160e01b0319909416939093179092529051610d2f9190611305565b6000604051808303816000865af19150503d8060008114610d6c576040519150601f19603f3d011682016040523d82523d6000602084013e610d71565b606091505b509150915081610d94576040805160008082526020820190925260159190610da8565b80806020019051810190610da89190611033565b60039290920b9a90995090975095505050505050565b600080600060606101676001600160a01b031663d6910d0660e01b888888604051602401610dee93929190611406565b60408051601f198184030181529181526020820180516001600160e01b03166001600160e01b0319909416939093179092529051610e2c9190611305565b6000604051808303816000865af19150503d8060008114610e69576040519150601f19603f3d011682016040523d82523d6000602084013e610e6e565b606091505b509150915081610e815760156000610e95565b80806020019051810190610e959190610fff565b60039190910b9890975095505050505050565b8051600381900b811461040457600080fd5b8051600781900b811461040457600080fd5b600060208284031215610edd578081fd5b8135610ee88161182d565b9392505050565b60008060008060808587031215610f04578283fd5b8435610f0f8161182d565b93506020850135610f1f8161182d565b92506040850135610f2f8161182d565b9396929550929360600135925050565b600080600060608486031215610f53578283fd5b8335610f5e8161182d565b92506020840135610f6e8161182d565b929592945050506040919091013590565b60008060408385031215610f91578182fd5b8235610f9c8161182d565b946020939093013593505050565b600060208284031215610fbb578081fd5b8151610ee881611845565b60008060408385031215610fd8578182fd5b8251610fe381611845565b6020840151909250610ff48161182d565b809150509250929050565b60008060408385031215611011578182fd5b61101b8484610ea8565b915061102a8460208501610eba565b90509250929050565b600080600060608486031215611047578283fd5b6110518585610ea8565b925060208085015161106281611854565b604086015190935067ffffffffffffffff8082111561107f578384fd5b81870188601f820112611090578485fd5b80519250818311156110a0578485fd5b83830291506110b08483016117d6565b8381528481019082860184840187018c10156110ca578788fd5b8794505b858510156110f4576110e08c82610eba565b8352600194909401939186019186016110ce565b508096505050505050509250925092565b600060208284031215611116578081fd5b815167ffffffffffffffff8082111561112d578283fd5b81840185601f82011261113e578384fd5b805192508183111561114e578384fd5b611161601f8401601f19166020016117d6565b9150828252856020848301011115611177578384fd5b6111888360208401602084016117fd565b50949350505050565b6000602082840312156111a2578081fd5b5051919050565b6000602082840312156111ba578081fd5b815160ff81168114610ee8578182fd5b6001600160a01b03169052565b6000815180845260208085018081965082840281019150828601855b8581101561128f57828403895281516040815186528682015181888801528051151582880152878101519250606060018060a01b03808516828a015283830151945060a09350608084818b015261124d60e08b01876112a2565b848401518b8203603f1901878d0152965061126881886112a2565b949091015190911660c09990990198909852509a87019a95505050908401906001016111f3565b5091979650505050505050565b15159052565b600081518084526112ba8160208601602086016117fd565b601f01601f19169290920160200192915050565b60030b9052565b60070b9052565b8051600790810b83526020808301516001600160a01b031690840152604091820151900b910152565b600082516113178184602087016117fd565b9190910192915050565b6001600160a01b0391909116815260200190565b6001600160a01b03948516815292841660208401529216604082015260079190910b606082015260800190565b6001600160a01b039485168152928416602084015292166040820152606081019190915260800190565b60006060820160018060a01b038616835260208560070b818501526060604085015281855180845260808601915060808382028701019350828701855b828110156113f757607f198887030184526113e58683516112a2565b955092840192908401906001016113c9565b50939998505050505050505050565b60006060820160018060a01b03861683526020600786810b82860152606060408601528286518085526080870191508388019450855b8181101561145a578551840b8352948401949184019160010161143c565b50909998505050505050505050565b60079190910b815260200190565b600060208252610ee860208301846112a2565b6020808252602e908201527f54686520736d61727420636f6e7472616374206973206e6f742074686520747260408201526d19585cdd5c9e481858d8dbdd5b9d60921b606082015260800190565b60208082526025908201527f444348463a2043616c6c6572206973206e6f74207468652053746162696c69746040820152641e541bdbdb60da1b606082015260800190565b6020808252604d908201527f444348463a2043616c6c6572206973206e65697468657220426f72726f77657260408201527f4f7065726174696f6e73206e6f722054726f76654d616e61676572206e6f722060608201526c14dd18589a5b1a5d1e541bdbdb609a1b608082015260a00190565b60208082526036908201527f444348463a2043616c6c6572206973206e6569746865722054726f76654d616e6040820152751859d95c881b9bdc8814dd18589a5b1a5d1e541bdbdb60521b606082015260800190565b60208082526031908201527f526573706f6e7365436f6465496e76616c69643a2070726f766964656420636f6040820152706465206973206e6f74207375636365737360781b606082015260800190565b6020808252601b908201527f416d6f756e74206578636565647320696e743634206c696d6974730000000000604082015260600190565b6020808252602b908201527f44434846546f6b656e3a2043616c6c6572206973206e6f7420426f72726f776560408201526a724f7065726174696f6e7360a81b606082015260800190565b60006060825284516101608060608501526116d86101c08501836112a2565b60208801519250605f19808683030160808701526116f682856112a2565b60408a0151945061170a60a08801866111ca565b60608a01519450818782030160c088015261172581866112a2565b9250506080890151935061173c60e087018561129c565b60a08901519350610100611752818801866112d5565b60c08a0151945061176761012088018661129c565b60e08a01519450818784030161014088015261178383866111d7565b908a015194509050611797868401856112dc565b93506117aa9250505060208301856112d5565b6117b760408301846112ce565b949350505050565b90815260200190565b60ff91909116815260200190565b60405181810167ffffffffffffffff811182821017156117f557600080fd5b604052919050565b60005b83811015611818578181015183820152602001611800565b83811115611827576000848401525b50505050565b6001600160a01b038116811461184257600080fd5b50565b8060030b811461184257600080fd5b8060070b811461184257600080fdfe6b767bc11146f2c96e7f90c7873a88dd9edb1c8f2f4ab29ff6c56fe7b6415b2aa264697066735822122061d0e94e238d8aa98db9e84a8835355bf00c71835ce8116ff46cca6322007e3364736f6c634300060b0033",
  "linkReferences": {},
  "deployedLinkReferences": {}
}