{
  "_format": "hh-sol-artifact-1",
  "contractName": "DCHFTokenCaller",
  "sourceName": "contracts/TestContracts/DCHFTokenCaller.sol",
  "abi": [
    {
      "inputs": [
        {
          "internalType": "address",
          "name": "_account",
          "type": "address"
        },
        {
          "internalType": "uint256",
          "name": "_amount",
          "type": "uint256"
        }
      ],
      "name": "dchfBurn",
      "outputs": [],
      "stateMutability": "nonpayable",
      "type": "function"
    },
    {
      "inputs": [
        {
          "internalType": "address",
          "name": "_account",
          "type": "address"
        },
        {
          "internalType": "uint256",
          "name": "_amount",
          "type": "uint256"
        }
      ],
      "name": "dchfMint",
      "outputs": [],
      "stateMutability": "nonpayable",
      "type": "function"
    },
    {
      "inputs": [
        {
          "internalType": "address",
          "name": "_poolAddress",
          "type": "address"
        },
        {
          "internalType": "address",
          "name": "_receiver",
          "type": "address"
        },
        {
          "internalType": "uint256",
          "name": "_amount",
          "type": "uint256"
        }
      ],
      "name": "dchfReturnFromPool",
      "outputs": [],
      "stateMutability": "nonpayable",
      "type": "function"
    },
    {
      "inputs": [
        {
          "internalType": "address",
          "name": "_sender",
          "type": "address"
        },
        {
          "internalType": "address",
          "name": "_poolAddress",
          "type": "address"
        },
        {
          "internalType": "uint256",
          "name": "_amount",
          "type": "uint256"
        }
      ],
      "name": "dchfSendToPool",
      "outputs": [],
      "stateMutability": "nonpayable",
      "type": "function"
    },
    {
      "inputs": [
        {
          "internalType": "contract IDCHFToken",
          "name": "_DCHF",
          "type": "address"
        }
      ],
      "name": "setDCHF",
      "outputs": [],
      "stateMutability": "nonpayable",
      "type": "function"
    }
  ],
  "bytecode": "0x608060405234801561001057600080fd5b50610331806100206000396000f3fe608060405234801561001057600080fd5b50600436106100575760003560e01c806305a51de91461005c5780632cb76a48146100945780633d33b127146100c0578063636921ee146100e6578063d258802d14610112575b600080fd5b6100926004803603606081101561007257600080fd5b506001600160a01b03813581169160208101359091169060400135610148565b005b610092600480360360408110156100aa57600080fd5b506001600160a01b0381351690602001356101bf565b610092600480360360208110156100d657600080fd5b50356001600160a01b031661022d565b610092600480360360408110156100fc57600080fd5b506001600160a01b03813516906020013561024f565b6100926004803603606081101561012857600080fd5b506001600160a01b038135811691602081013590911690604001356102a1565b6000805460408051632ee65eeb60e21b81526001600160a01b0387811660048301528681166024830152604482018690529151919092169263bb997bac926064808201939182900301818387803b1580156101a257600080fd5b505af11580156101b6573d6000803e3d6000fd5b50505050505050565b6000805460408051632770a7eb60e21b81526001600160a01b0386811660048301526024820186905291519190921692639dc29fac926044808201939182900301818387803b15801561021157600080fd5b505af1158015610225573d6000803e3d6000fd5b505050505050565b600080546001600160a01b0319166001600160a01b0392909216919091179055565b60008054604080516340c10f1960e01b81526001600160a01b03868116600483015260248201869052915191909216926340c10f19926044808201939182900301818387803b15801561021157600080fd5b6000805460408051631062c15f60e11b81526001600160a01b038781166004830152868116602483015260448201869052915191909216926320c582be926064808201939182900301818387803b1580156101a257600080fdfea264697066735822122002ed682a2fceb40aa4f98c301591c49d4969509a71fa6a6b6d414f2c1b71929164736f6c634300060b0033",
  "linkReferences": {},
  "deployedLinkReferences": {}
}