{
  "_format": "hh-sol-artifact-1",
  "contractName": "HCHFTokenTester",
  "sourceName": "contracts/TestContracts/HCHFTokenTester.sol",
  "abi": [
    {
      "inputs": [
        {
          "internalType": "address",
          "name": "_troveManagerAddress",
          "type": "address"
        },
        {
          "internalType": "address",
          "name": "_stabilityPoolAddress",
          "type": "address"
        },
        {
          "internalType": "address",
          "name": "_borrowerOperationsAddress",
          "type": "address"
        }
      ],
      "stateMutability": "payable",
      "type": "constructor"
    },
    {
      "anonymous": false,
      "inputs": [
        {
          "indexed": false,
          "internalType": "address",
          "name": "_newBorrowerOperationsAddress",
          "type": "address"
        }
      ],
      "name": "BorrowerOperationsAddressChanged",
      "type": "event"
    },
    {
      "anonymous": false,
      "inputs": [
        {
          "indexed": true,
          "internalType": "address",
          "name": "admin",
          "type": "address"
        },
        {
          "indexed": false,
          "internalType": "string",
          "name": "metadata",
          "type": "string"
        }
      ],
      "name": "MetadataSet",
      "type": "event"
    },
    {
      "anonymous": false,
      "inputs": [
        {
          "indexed": false,
          "internalType": "int64",
          "name": "newTotalSupply",
          "type": "int64"
        },
        {
          "indexed": false,
          "internalType": "int64[]",
          "name": "serialNumbers",
          "type": "int64[]"
        }
      ],
      "name": "MintedToken",
      "type": "event"
    },
    {
      "anonymous": false,
      "inputs": [
        {
          "indexed": false,
          "internalType": "int256",
          "name": "responseCode",
          "type": "int256"
        }
      ],
      "name": "ResponseCode",
      "type": "event"
    },
    {
      "anonymous": false,
      "inputs": [
        {
          "indexed": false,
          "internalType": "address",
          "name": "_newStabilityPoolAddress",
          "type": "address"
        }
      ],
      "name": "StabilityPoolAddressChanged",
      "type": "event"
    },
    {
      "anonymous": false,
      "inputs": [
        {
          "indexed": true,
          "internalType": "address",
          "name": "token",
          "type": "address"
        },
        {
          "components": [
            {
              "internalType": "string",
              "name": "tokenName",
              "type": "string"
            },
            {
              "internalType": "string",
              "name": "tokenSymbol",
              "type": "string"
            },
            {
              "components": [
                {
                  "internalType": "uint256",
                  "name": "keyType",
                  "type": "uint256"
                },
                {
                  "internalType": "bytes",
                  "name": "publicKey",
                  "type": "bytes"
                },
                {
                  "internalType": "bool",
                  "name": "isED25519",
                  "type": "bool"
                }
              ],
              "internalType": "struct KeysLib.KeysStruct[]",
              "name": "keys",
              "type": "tuple[]"
            },
            {
              "internalType": "int64",
              "name": "second",
              "type": "int64"
            },
            {
              "internalType": "int64",
              "name": "autoRenewPeriod",
              "type": "int64"
            },
            {
              "internalType": "string",
              "name": "tokenMetadataURI",
              "type": "string"
            }
          ],
          "indexed": false,
          "internalType": "struct IHCHFToken.UpdateTokenStruct",
          "name": "updateTokenStruct",
          "type": "tuple"
        }
      ],
      "name": "TokenUpdated",
      "type": "event"
    },
    {
      "anonymous": false,
      "inputs": [
        {
          "indexed": true,
          "internalType": "address",
          "name": "burner",
          "type": "address"
        },
        {
          "indexed": true,
          "internalType": "address",
          "name": "token",
          "type": "address"
        },
        {
          "indexed": false,
          "internalType": "int64",
          "name": "amount",
          "type": "int64"
        }
      ],
      "name": "TokensBurned",
      "type": "event"
    },
    {
      "anonymous": false,
      "inputs": [
        {
          "indexed": true,
          "internalType": "address",
          "name": "minter",
          "type": "address"
        },
        {
          "indexed": true,
          "internalType": "address",
          "name": "token",
          "type": "address"
        },
        {
          "indexed": false,
          "internalType": "int64",
          "name": "amount",
          "type": "int64"
        },
        {
          "indexed": true,
          "internalType": "address",
          "name": "account",
          "type": "address"
        }
      ],
      "name": "TokensMinted",
      "type": "event"
    },
    {
      "anonymous": false,
      "inputs": [
        {
          "indexed": true,
          "internalType": "address",
          "name": "token",
          "type": "address"
        },
        {
          "indexed": true,
          "internalType": "address",
          "name": "from",
          "type": "address"
        },
        {
          "indexed": true,
          "internalType": "address",
          "name": "to",
          "type": "address"
        },
        {
          "indexed": false,
          "internalType": "int64",
          "name": "value",
          "type": "int64"
        }
      ],
      "name": "Transfer",
      "type": "event"
    },
    {
      "anonymous": false,
      "inputs": [
        {
          "indexed": false,
          "internalType": "address",
          "name": "_troveManagerAddress",
          "type": "address"
        }
      ],
      "name": "TroveManagerAddressChanged",
      "type": "event"
    },
    {
      "inputs": [
        {
          "internalType": "address",
          "name": "account",
          "type": "address"
        }
      ],
      "name": "balanceOf",
      "outputs": [
        {
          "internalType": "uint256",
          "name": "",
          "type": "uint256"
        }
      ],
      "stateMutability": "view",
      "type": "function"
    },
    {
      "inputs": [],
      "name": "borrowerOperationsAddress",
      "outputs": [
        {
          "internalType": "address",
          "name": "",
          "type": "address"
        }
      ],
      "stateMutability": "view",
      "type": "function"
    },
    {
      "inputs": [
        {
          "internalType": "address",
          "name": "_account",
          "type": "address"
        },
        {
          "internalType": "uint256",
          "name": "_amount",
          "type": "uint256"
        }
      ],
      "name": "burn",
      "outputs": [],
      "stateMutability": "nonpayable",
      "type": "function"
    },
    {
      "inputs": [],
      "name": "decimals",
      "outputs": [
        {
          "internalType": "uint8",
          "name": "",
          "type": "uint8"
        }
      ],
      "stateMutability": "view",
      "type": "function"
    },
    {
      "inputs": [],
      "name": "getTokenAddress",
      "outputs": [
        {
          "internalType": "address",
          "name": "",
          "type": "address"
        }
      ],
      "stateMutability": "view",
      "type": "function"
    },
    {
      "inputs": [
        {
          "internalType": "address",
          "name": "_account",
          "type": "address"
        },
        {
          "internalType": "uint256",
          "name": "_amount",
          "type": "uint256"
        }
      ],
      "name": "mint",
      "outputs": [],
      "stateMutability": "nonpayable",
      "type": "function"
    },
    {
      "inputs": [],
      "name": "name",
      "outputs": [
        {
          "internalType": "string",
          "name": "",
          "type": "string"
        }
      ],
      "stateMutability": "view",
      "type": "function"
    },
    {
      "inputs": [
        {
          "internalType": "address",
          "name": "_poolAddress",
          "type": "address"
        },
        {
          "internalType": "address",
          "name": "_receiver",
          "type": "address"
        },
        {
          "internalType": "uint256",
          "name": "_amount",
          "type": "uint256"
        }
      ],
      "name": "returnFromPool",
      "outputs": [],
      "stateMutability": "nonpayable",
      "type": "function"
    },
    {
      "inputs": [
        {
          "internalType": "address",
          "name": "_sender",
          "type": "address"
        },
        {
          "internalType": "address",
          "name": "_poolAddress",
          "type": "address"
        },
        {
          "internalType": "uint256",
          "name": "_amount",
          "type": "uint256"
        }
      ],
      "name": "sendToPool",
      "outputs": [],
      "stateMutability": "nonpayable",
      "type": "function"
    },
    {
      "inputs": [],
      "name": "stabilityPoolAddress",
      "outputs": [
        {
          "internalType": "address",
          "name": "",
          "type": "address"
        }
      ],
      "stateMutability": "view",
      "type": "function"
    },
    {
      "inputs": [],
      "name": "symbol",
      "outputs": [
        {
          "internalType": "string",
          "name": "",
          "type": "string"
        }
      ],
      "stateMutability": "view",
      "type": "function"
    },
    {
      "inputs": [],
      "name": "tokenAddress",
      "outputs": [
        {
          "internalType": "address",
          "name": "",
          "type": "address"
        }
      ],
      "stateMutability": "view",
      "type": "function"
    },
    {
      "inputs": [],
      "name": "totalSupply",
      "outputs": [
        {
          "internalType": "uint256",
          "name": "",
          "type": "uint256"
        }
      ],
      "stateMutability": "view",
      "type": "function"
    },
    {
      "inputs": [
        {
          "internalType": "address",
          "name": "token",
          "type": "address"
        },
        {
          "internalType": "address",
          "name": "from",
          "type": "address"
        },
        {
          "internalType": "address",
          "name": "to",
          "type": "address"
        },
        {
          "internalType": "uint256",
          "name": "amount",
          "type": "uint256"
        }
      ],
      "name": "transferFrom",
      "outputs": [
        {
          "internalType": "int64",
          "name": "responseCode",
          "type": "int64"
        }
      ],
      "stateMutability": "nonpayable",
      "type": "function"
    },
    {
      "inputs": [
        {
          "internalType": "address",
          "name": "token",
          "type": "address"
        },
        {
          "internalType": "address",
          "name": "from",
          "type": "address"
        },
        {
          "internalType": "address",
          "name": "to",
          "type": "address"
        },
        {
          "internalType": "uint256",
          "name": "serialNumber",
          "type": "uint256"
        }
      ],
      "name": "transferFromNFT",
      "outputs": [
        {
          "internalType": "int64",
          "name": "responseCode",
          "type": "int64"
        }
      ],
      "stateMutability": "nonpayable",
      "type": "function"
    },
    {
      "inputs": [],
      "name": "troveManagerAddress",
      "outputs": [
        {
          "internalType": "address",
          "name": "",
          "type": "address"
        }
      ],
      "stateMutability": "view",
      "type": "function"
    },
    {
      "inputs": [
        {
          "internalType": "address",
          "name": "_account",
          "type": "address"
        },
        {
          "internalType": "uint256",
          "name": "_amount",
          "type": "uint256"
        }
      ],
      "name": "unprotectedBurn",
      "outputs": [],
      "stateMutability": "nonpayable",
      "type": "function"
    },
    {
      "inputs": [
        {
          "internalType": "address",
          "name": "_account",
          "type": "address"
        },
        {
          "internalType": "uint256",
          "name": "_amount",
          "type": "uint256"
        }
      ],
      "name": "unprotectedMint",
      "outputs": [],
      "stateMutability": "nonpayable",
      "type": "function"
    },
    {
      "inputs": [
        {
          "internalType": "address",
          "name": "_poolAddress",
          "type": "address"
        },
        {
          "internalType": "address",
          "name": "_receiver",
          "type": "address"
        },
        {
          "internalType": "uint256",
          "name": "_amount",
          "type": "uint256"
        }
      ],
      "name": "unprotectedReturnFromPool",
      "outputs": [],
      "stateMutability": "nonpayable",
      "type": "function"
    },
    {
      "inputs": [
        {
          "internalType": "address",
          "name": "_sender",
          "type": "address"
        },
        {
          "internalType": "address",
          "name": "_poolAddress",
          "type": "address"
        },
        {
          "internalType": "uint256",
          "name": "_amount",
          "type": "uint256"
        }
      ],
      "name": "unprotectedSendToPool",
      "outputs": [],
      "stateMutability": "nonpayable",
      "type": "function"
    }
  ],
  "bytecode": "0x60e060405260405162002579380380620025798339810160408190526200002691620007b0565b600160208181527fa6eef7e35abe7026729641147f7915573c7e97b47efa546f5f6e3230263bcb499190915560027fcc69885fda6bcc1a4ace058b4a62bf5e179ea78fd58a1ccd71c22cc9b688792f5560047fd9d16d34ffb15ba3a3d852f0d403e2ce1d691fb54de27ac87cd2f993f3ec330f5560087f7dfe757ecd65cbd7922a9c0161e935dd7fdbcc0e999689c7d31633896b1fc60b5560107fedc95719e9a3b28dd8e80877cb5880a9be7de1a13fc8b05e7999683b6b567643557fe2689cd4a84e23ad2f564004f1c9013e9589d260bde6380aba3ca7e09e4df40c55600660005260407f8f331abe73332f95a25873e8b430885974c0409691f89d643119a11623a7924a558282826200013b83620003a1565b6200014f826001600160e01b03620003a116565b62000163816001600160e01b03620003a116565b6001600160601b0319606084901b166080526040517f143219c9e69b09e07e095fcc889b43d8f46ca892bba65f08dc3a0050869a567890620001a7908590620009a9565b60405180910390a16001600160601b0319606083901b1660a0526040517f82966d27eea39b038ee0fa30cd16532bb24f6e65d31cb58fb227aa5766cdcc7f90620001f3908490620009a9565b60405180910390a16001600160601b0319606082901b1660c0526040517f3ca631ffcd2a9b5d9ae18543fc82f58eb4ca33af9e6ab01b7a8e95331e6ed985906200023f908390620009a9565b60405180910390a162000251620006ce565b604080518082018252600f81526e2221a4231029ba30b13632b1b7b4b760891b6020808301919091529083528151808301835260048152632221a42360e11b818301529083015230908201819052620002b790627a12006001600160e01b03620003f916565b610100820152604080516001808252818301909252606091816020015b620002de62000731565b815260200190600190039081620002d45790505090506200031860046000604051806020016040528060008152506200042260201b60201c565b816000815181106200032657fe5b6020026020010181905250808260e001819052506000806200035784600060086200046c60201b6200054e1760201c565b909250905062000370826001600160e01b03620005a116565b50600280546001600160a01b0319166001600160a01b03929092169190911790555062000be2975050505050505050565b6001600160a01b038116620003d35760405162461bcd60e51b8152600401620003ca90620009bd565b60405180910390fd5b803b80620003f55760405162461bcd60e51b8152600401620003ca9062000a45565b5050565b620004036200074d565b6001600160a01b039092166020830152600790810b900b604082015290565b6200042c62000731565b60405180604001604052806200044886620005ce60201b60201c565b81526020016200046285856001600160e01b036200060316565b9052949350505050565b600080848061010001516000015160070b60001480156200049757506101008101516040015160070b155b15620004ae576101008101516276a7006040909101525b600060606101676001600160a01b031634630fb65bf360e01b8a8a8a604051602401620004de9392919062000a7a565b60408051601f198184030181529181526020820180516001600160e01b03166001600160e01b03199094169390931790925290516200051e91906200098b565b60006040518083038185875af1925050503d80600081146200055d576040519150601f19603f3d011682016040523d82523d6000602084013e62000562565b606091505b5091509150816200057757601560006200058d565b808060200190518101906200058d919062000803565b60039190910b999098509650505050505050565b600060168214620005c65760405162461bcd60e51b8152600401620003ca90620009f4565b506001919050565b600060016000836006811115620005e157fe5b6006811115620005ed57fe5b8152602001908152602001600020549050919050565b6200060d6200076d565b60008360048111156200061c57fe5b14156200062d5760018152620006c8565b60018360048111156200063c57fe5b14156200065a576000546001600160a01b03166020820152620006c8565b60028360048111156200066957fe5b14156200067d5760408101829052620006c8565b60038360048111156200068c57fe5b1415620006a05760608101829052620006c8565b6004836004811115620006af57fe5b1415620006c8576000546001600160a01b031660808201525b92915050565b604051806101200160405280606081526020016060815260200160006001600160a01b0316815260200160608152602001600015158152602001600060070b8152602001600015158152602001606081526020016200072c6200074d565b905290565b6040518060400160405280600081526020016200072c6200076d565b604080516060810182526000808252602082018190529181019190915290565b6040518060a0016040528060001515815260200160006001600160a01b03168152602001606081526020016060815260200160006001600160a01b031681525090565b600080600060608486031215620007c5578283fd5b8351620007d28162000bc9565b6020850151909350620007e58162000bc9565b6040850151909250620007f88162000bc9565b809150509250925092565b6000806040838503121562000816578182fd5b82518060030b811462000827578283fd5b60208401519092506200083a8162000bc9565b809150509250929050565b6001600160a01b03169052565b60008282518085526020808601955080818302840101818601855b848110156200091357601f1986840301895281516040815185528582015181878701528051151582870152868101519250606060018060a01b038085168289015283830151945060a09350608084818a0152620008ce60e08a018762000926565b848401518a8203603f1901878c01529650620008eb818862000926565b949091015190911660c09890980197909752509a86019a94505050908301906001016200086d565b5090979650505050505050565b15159052565b600081518084526200094081602086016020860162000b96565b601f01601f19169290920160200192915050565b60030b9052565b60070b9052565b8051600790810b83526020808301516001600160a01b031690840152604091820151900b910152565b600082516200099f81846020870162000b96565b9190910192915050565b6001600160a01b0391909116815260200190565b6020808252601e908201527f4163636f756e742063616e6e6f74206265207a65726f20616464726573730000604082015260600190565b60208082526031908201527f526573706f6e7365436f6465496e76616c69643a2070726f766964656420636f6040820152706465206973206e6f74207375636365737360781b606082015260800190565b6020808252818101527f4163636f756e7420636f64652073697a652063616e6e6f74206265207a65726f604082015260600190565b600060608252845161016080606085015262000a9b6101c085018362000926565b60208801519250605f198086830301608087015262000abb828562000926565b60408a0151945062000ad160a088018662000845565b60608a01519450818782030160c088015262000aee818662000926565b9250506080890151935062000b0760e087018562000920565b60a0890151935061010062000b1f818801866200095b565b60c08a0151945062000b3661012088018662000920565b60e08a01519450818784030161014088015262000b54838662000852565b908a01519450905062000b6a8684018562000962565b935062000b7f9250505060208301856200095b565b62000b8e604083018462000954565b949350505050565b60005b8381101562000bb357818101518382015260200162000b99565b8381111562000bc3576000848401525b50505050565b6001600160a01b038116811462000bdf57600080fd5b50565b60805160601c60a05160601c60c05160601c61193e62000c3b6000398061052452806109c45280610bff52508061030852806107315280610c645280610cad52508061046652806106ff5280610c31525061193e6000f3fe608060405234801561001057600080fd5b506004361061012c5760003560e01c80635099f99f116100ad5780639d76ea58116100715780639d76ea581461024d5780639dc29fac14610255578063b655c276146101de578063b7f8cf9b14610268578063bb997bac146102705761012c565b80635099f99f146102045780635a4d28bb1461021757806370a082311461021f57806395d89b41146102325780639b23d3d91461023a5761012c565b806320c582be116100f457806320c582be146101a1578063313ce567146101b65780633ab60582146101cb5780633dc2ea6d146101de57806340c10f19146101f15761012c565b806306fdde03146101315780630b622ab21461014f57806310fe9ae81461016457806315dacbea1461016c57806318160ddd1461018c575b600080fd5b610139610283565b60405161014691906114fc565b60405180910390f35b610157610306565b60405161014691906113a6565b61015761032a565b61017f61017a366004610f74565b610339565b60405161014691906114ee565b61019461041c565b6040516101469190611844565b6101b46101af366004610fc4565b610426565b005b6101be61043e565b604051610146919061184d565b6101b46101d9366004611004565b610448565b6101b46101ec366004610fc4565b61042e565b6101b46101ff366004611004565b610452565b6101b4610212366004611004565b61045a565b610157610464565b61019461022d366004610f51565b610488565b610139610499565b61017f610248366004610f74565b6104db565b61015761050b565b6101b4610263366004611004565b61051a565b610157610522565b6101b461027e366004610fc4565b610546565b606061028d61032a565b6001600160a01b03166306fdde036040518163ffffffff1660e01b815260040160006040518083038186803b1580156102c557600080fd5b505afa1580156102d9573d6000803e3d6000fd5b505050506040513d6000823e601f3d908101601f19168201604052610301919081019061118a565b905090565b7f000000000000000000000000000000000000000000000000000000000000000081565b6002546001600160a01b031690565b60008060606101676001600160a01b03166315dacbea60e01b8888888860405160240161036994939291906113e7565b60408051601f198184030181529181526020820180516001600160e01b03166001600160e01b03199094169390931790925290516103a7919061138a565b6000604051808303816000865af19150503d80600081146103e4576040519150601f19603f3d011682016040523d82523d6000602084013e6103e9565b606091505b5091509150816103fa57601561040e565b8080602001905181019061040e919061102f565b60030b979650505050505050565b6000610301610677565b61042e6106f4565b61043983838361077a565b505050565b6000610301610834565b61043982826108b1565b61045a6109b9565b6104398282610a01565b7f000000000000000000000000000000000000000000000000000000000000000081565b600061049382610b6f565b92915050565b60606104a361032a565b6001600160a01b03166395d89b416040518163ffffffff1660e01b815260040160006040518083038186803b1580156102c557600080fd5b60008060606101676001600160a01b0316639b23d3d960e01b8888888860405160240161036994939291906113e7565b6002546001600160a01b031681565b610448610bf4565b7f000000000000000000000000000000000000000000000000000000000000000081565b61042e610ca2565b600080848061010001516000015160070b600014801561057857506101008101516040015160070b155b1561058e576101008101516276a7006040909101525b600060606101676001600160a01b031634630fb65bf360e01b8a8a8a6040516024016105bc9392919061173e565b60408051601f198184030181529181526020820180516001600160e01b03166001600160e01b03199094169390931790925290516105fa919061138a565b60006040518083038185875af1925050503d8060008114610637576040519150601f19603f3d011682016040523d82523d6000602084013e61063c565b606091505b50915091508161064f5760156000610663565b80806020019051810190610663919061104b565b60039190910b999098509650505050505050565b600254604080516318160ddd60e01b815290516000926001600160a01b0316916318160ddd916004808301926020929190829003018186803b1580156106bc57600080fd5b505afa1580156106d0573d6000803e3d6000fd5b505050506040513d601f19601f820116820180604052508101906103019190611216565b336001600160a01b037f00000000000000000000000000000000000000000000000000000000000000001614806107535750336001600160a01b037f000000000000000000000000000000000000000000000000000000000000000016145b6107785760405162461bcd60e51b815260040161076f90611615565b60405180910390fd5b565b6001600160a01b03831661078a57fe5b6001600160a01b03821661079a57fe5b677fffffffffffffff8111156107c25760405162461bcd60e51b815260040161076f906116bc565b8060006107cd61032a565b905060006107dd82878786610cea565b90506107e881610d1a565b50846001600160a01b0316866001600160a01b0316836001600160a01b03166000805160206118e98339815191528660405161082491906114ee565b60405180910390a4505050505050565b6002546040805163313ce56760e01b815290516000926001600160a01b03169163313ce567916004808301926020929190829003018186803b15801561087957600080fd5b505afa15801561088d573d6000803e3d6000fd5b505050506040513d601f19601f82011682018060405250810190610301919061122e565b6000677fffffffffffffff8211156108db5760405162461bcd60e51b815260040161076f906116bc565b8160006108e661032a565b90506108f385308661077a565b604080516000808252602082019092526109109083908590610d44565b509050600061091e82610d1a565b9050826001600160a01b0316336001600160a01b03167f4f573c1c6a0b39a573b0d1eb72a77da722c80f61ae1dc2d70295dd8132410e198660405161096391906114ee565b60405180910390a360006001600160a01b0316876001600160a01b0316846001600160a01b03166000805160206118e9833981519152876040516109a791906114ee565b60405180910390a49695505050505050565b336001600160a01b037f000000000000000000000000000000000000000000000000000000000000000016146107785760405162461bcd60e51b815260040161076f906116f3565b6000677fffffffffffffff821115610a2b5760405162461bcd60e51b815260040161076f906116bc565b816000610a3661032a565b90506000610a4330610b6f565b90506000610a86838583604051908082528060200260200182016040528015610a8057816020015b6060815260200190600190039081610a6b5790505b50610e2e565b505090506000610a9582610d1a565b90508683610aa230610b6f565b0314610ac05760405162461bcd60e51b815260040161076f9061150f565b610acb30898961077a565b876001600160a01b0316846001600160a01b0316336001600160a01b03167f934db7531d828cd34b45bac43e2b8a766685392b2d772fa9dcf22a0b939a9b9b88604051610b1891906114ee565b60405180910390a4876001600160a01b031660006001600160a01b0316856001600160a01b03166000805160206118e983398151915288604051610b5c91906114ee565b60405180910390a4979650505050505050565b6000610b7961032a565b6001600160a01b03166370a08231836040518263ffffffff1660e01b8152600401610ba491906113a6565b60206040518083038186803b158015610bbc57600080fd5b505afa158015610bd0573d6000803e3d6000fd5b505050506040513d601f19601f820116820180604052508101906104939190611216565b336001600160a01b037f0000000000000000000000000000000000000000000000000000000000000000161480610c535750336001600160a01b037f000000000000000000000000000000000000000000000000000000000000000016145b80610c865750336001600160a01b037f000000000000000000000000000000000000000000000000000000000000000016145b6107785760405162461bcd60e51b815260040161076f906115a2565b336001600160a01b037f000000000000000000000000000000000000000000000000000000000000000016146107785760405162461bcd60e51b815260040161076f9061155d565b60008060606101676001600160a01b031663eca3691760e01b8888888860405160240161036994939291906113ba565b600060168214610d3c5760405162461bcd60e51b815260040161076f9061166b565b506001919050565b600080600060606101676001600160a01b031663d6910d0660e01b888888604051602401610d749392919061148b565b60408051601f198184030181529181526020820180516001600160e01b03166001600160e01b0319909416939093179092529051610db2919061138a565b6000604051808303816000865af19150503d8060008114610def576040519150601f19603f3d011682016040523d82523d6000602084013e610df4565b606091505b509150915081610e075760156000610e1b565b80806020019051810190610e1b9190611084565b60039190910b9890975095505050505050565b6000806060600060606101676001600160a01b031663e0f4059a60e01b898989604051602401610e6093929190611411565b60408051601f198184030181529181526020820180516001600160e01b03166001600160e01b0319909416939093179092529051610e9e919061138a565b6000604051808303816000865af19150503d8060008114610edb576040519150601f19603f3d011682016040523d82523d6000602084013e610ee0565b606091505b509150915081610f03576040805160008082526020820190925260159190610f17565b80806020019051810190610f1791906110b8565b60039290920b9a90995090975095505050505050565b8051600381900b811461049357600080fd5b8051600781900b811461049357600080fd5b600060208284031215610f62578081fd5b8135610f6d816118b2565b9392505050565b60008060008060808587031215610f89578283fd5b8435610f94816118b2565b93506020850135610fa4816118b2565b92506040850135610fb4816118b2565b9396929550929360600135925050565b600080600060608486031215610fd8578283fd5b8335610fe3816118b2565b92506020840135610ff3816118b2565b929592945050506040919091013590565b60008060408385031215611016578182fd5b8235611021816118b2565b946020939093013593505050565b600060208284031215611040578081fd5b8151610f6d816118ca565b6000806040838503121561105d578182fd5b8251611068816118ca565b6020840151909250611079816118b2565b809150509250929050565b60008060408385031215611096578182fd5b6110a08484610f2d565b91506110af8460208501610f3f565b90509250929050565b6000806000606084860312156110cc578283fd5b6110d68585610f2d565b92506020808501516110e7816118d9565b604086015190935067ffffffffffffffff80821115611104578384fd5b81870188601f820112611115578485fd5b8051925081831115611125578485fd5b838302915061113584830161185b565b8381528481019082860184840187018c101561114f578788fd5b8794505b85851015611179576111658c82610f3f565b835260019490940193918601918601611153565b508096505050505050509250925092565b60006020828403121561119b578081fd5b815167ffffffffffffffff808211156111b2578283fd5b81840185601f8201126111c3578384fd5b80519250818311156111d3578384fd5b6111e6601f8401601f191660200161185b565b91508282528560208483010111156111fc578384fd5b61120d836020840160208401611882565b50949350505050565b600060208284031215611227578081fd5b5051919050565b60006020828403121561123f578081fd5b815160ff81168114610f6d578182fd5b6001600160a01b03169052565b6000815180845260208085018081965082840281019150828601855b8581101561131457828403895281516040815186528682015181888801528051151582880152878101519250606060018060a01b03808516828a015283830151945060a09350608084818b01526112d260e08b0187611327565b848401518b8203603f1901878d015296506112ed8188611327565b949091015190911660c09990990198909852509a87019a9550505090840190600101611278565b5091979650505050505050565b15159052565b6000815180845261133f816020860160208601611882565b601f01601f19169290920160200192915050565b60030b9052565b60070b9052565b8051600790810b83526020808301516001600160a01b031690840152604091820151900b910152565b6000825161139c818460208701611882565b9190910192915050565b6001600160a01b0391909116815260200190565b6001600160a01b03948516815292841660208401529216604082015260079190910b606082015260800190565b6001600160a01b039485168152928416602084015292166040820152606081019190915260800190565b60006060820160018060a01b038616835260208560070b818501526060604085015281855180845260808601915060808382028701019350828701855b8281101561147c57607f1988870301845261146a868351611327565b9550928401929084019060010161144e565b50939998505050505050505050565b60006060820160018060a01b03861683526020600786810b82860152606060408601528286518085526080870191508388019450855b818110156114df578551840b835294840194918401916001016114c1565b50909998505050505050505050565b60079190910b815260200190565b600060208252610f6d6020830184611327565b6020808252602e908201527f54686520736d61727420636f6e7472616374206973206e6f742074686520747260408201526d19585cdd5c9e481858d8dbdd5b9d60921b606082015260800190565b60208082526025908201527f444348463a2043616c6c6572206973206e6f74207468652053746162696c69746040820152641e541bdbdb60da1b606082015260800190565b6020808252604d908201527f444348463a2043616c6c6572206973206e65697468657220426f72726f77657260408201527f4f7065726174696f6e73206e6f722054726f76654d616e61676572206e6f722060608201526c14dd18589a5b1a5d1e541bdbdb609a1b608082015260a00190565b60208082526036908201527f444348463a2043616c6c6572206973206e6569746865722054726f76654d616e6040820152751859d95c881b9bdc8814dd18589a5b1a5d1e541bdbdb60521b606082015260800190565b60208082526031908201527f526573706f6e7365436f6465496e76616c69643a2070726f766964656420636f6040820152706465206973206e6f74207375636365737360781b606082015260800190565b6020808252601b908201527f416d6f756e74206578636565647320696e743634206c696d6974730000000000604082015260600190565b6020808252602b908201527f44434846546f6b656e3a2043616c6c6572206973206e6f7420426f72726f776560408201526a724f7065726174696f6e7360a81b606082015260800190565b600060608252845161016080606085015261175d6101c0850183611327565b60208801519250605f198086830301608087015261177b8285611327565b60408a0151945061178f60a088018661124f565b60608a01519450818782030160c08801526117aa8186611327565b925050608089015193506117c160e0870185611321565b60a089015193506101006117d78188018661135a565b60c08a015194506117ec610120880186611321565b60e08a015194508187840301610140880152611808838661125c565b908a01519450905061181c86840185611361565b935061182f92505050602083018561135a565b61183c6040830184611353565b949350505050565b90815260200190565b60ff91909116815260200190565b60405181810167ffffffffffffffff8111828210171561187a57600080fd5b604052919050565b60005b8381101561189d578181015183820152602001611885565b838111156118ac576000848401525b50505050565b6001600160a01b03811681146118c757600080fd5b50565b8060030b81146118c757600080fd5b8060070b81146118c757600080fdfe6b767bc11146f2c96e7f90c7873a88dd9edb1c8f2f4ab29ff6c56fe7b6415b2aa264697066735822122036ad93399b9ebbf26ab8f65f010ca2745d214e572b434f7558702c339ce8032d64736f6c634300060b0033",
  "linkReferences": {},
  "deployedLinkReferences": {}
}